{
  "_format": "hh-sol-artifact-1",
  "contractName": "Lottery",
  "sourceName": "contracts/Lottery.sol",
  "abi": [
    {
      "inputs": [
        {
          "internalType": "string",
          "name": "tokenName",
          "type": "string"
        },
        {
          "internalType": "string",
          "name": "tokenSymbol",
          "type": "string"
        },
        {
          "internalType": "uint256",
          "name": "_purchaseRatio",
          "type": "uint256"
        },
        {
          "internalType": "uint256",
          "name": "_betPrice",
          "type": "uint256"
        },
        {
          "internalType": "uint256",
          "name": "_betFee",
          "type": "uint256"
        }
      ],
      "stateMutability": "nonpayable",
      "type": "constructor"
    },
    {
      "inputs": [
        {
          "internalType": "address",
          "name": "owner",
          "type": "address"
        }
      ],
      "name": "OwnableInvalidOwner",
      "type": "error"
    },
    {
      "inputs": [
        {
          "internalType": "address",
          "name": "account",
          "type": "address"
        }
      ],
      "name": "OwnableUnauthorizedAccount",
      "type": "error"
    },
    {
      "anonymous": false,
      "inputs": [
        {
          "indexed": true,
          "internalType": "address",
          "name": "previousOwner",
          "type": "address"
        },
        {
          "indexed": true,
          "internalType": "address",
          "name": "newOwner",
          "type": "address"
        }
      ],
      "name": "OwnershipTransferred",
      "type": "event"
    },
    {
      "inputs": [],
      "name": "bet",
      "outputs": [],
      "stateMutability": "nonpayable",
      "type": "function"
    },
    {
      "inputs": [],
      "name": "betFee",
      "outputs": [
        {
          "internalType": "uint256",
          "name": "",
          "type": "uint256"
        }
      ],
      "stateMutability": "view",
      "type": "function"
    },
    {
      "inputs": [
        {
          "internalType": "uint256",
          "name": "times",
          "type": "uint256"
        }
      ],
      "name": "betMany",
      "outputs": [],
      "stateMutability": "nonpayable",
      "type": "function"
    },
    {
      "inputs": [],
      "name": "betPrice",
      "outputs": [
        {
          "internalType": "uint256",
          "name": "",
          "type": "uint256"
        }
      ],
      "stateMutability": "view",
      "type": "function"
    },
    {
      "inputs": [],
      "name": "betsClosingTime",
      "outputs": [
        {
          "internalType": "uint256",
          "name": "",
          "type": "uint256"
        }
      ],
      "stateMutability": "view",
      "type": "function"
    },
    {
      "inputs": [],
      "name": "betsOpen",
      "outputs": [
        {
          "internalType": "bool",
          "name": "",
          "type": "bool"
        }
      ],
      "stateMutability": "view",
      "type": "function"
    },
    {
      "inputs": [],
      "name": "closeLottery",
      "outputs": [],
      "stateMutability": "nonpayable",
      "type": "function"
    },
    {
      "inputs": [],
      "name": "getBetsClosingTime",
      "outputs": [
        {
          "internalType": "uint256",
          "name": "",
          "type": "uint256"
        }
      ],
      "stateMutability": "view",
      "type": "function"
    },
    {
      "inputs": [],
      "name": "getBetsOpen",
      "outputs": [
        {
          "internalType": "bool",
          "name": "",
          "type": "bool"
        }
      ],
      "stateMutability": "view",
      "type": "function"
    },
    {
      "inputs": [],
      "name": "getNumberOfSlots",
      "outputs": [
        {
          "internalType": "uint256",
          "name": "",
          "type": "uint256"
        }
      ],
      "stateMutability": "view",
      "type": "function"
    },
    {
      "inputs": [],
      "name": "getOwnerPool",
      "outputs": [
        {
          "internalType": "uint256",
          "name": "",
          "type": "uint256"
        }
      ],
      "stateMutability": "view",
      "type": "function"
    },
    {
      "inputs": [],
      "name": "getPaymentTokenAddress",
      "outputs": [
        {
          "internalType": "address",
          "name": "",
          "type": "address"
        }
      ],
      "stateMutability": "view",
      "type": "function"
    },
    {
      "inputs": [
        {
          "internalType": "address",
          "name": "player",
          "type": "address"
        }
      ],
      "name": "getPrizeOf",
      "outputs": [
        {
          "internalType": "uint256",
          "name": "",
          "type": "uint256"
        }
      ],
      "stateMutability": "view",
      "type": "function"
    },
    {
      "inputs": [],
      "name": "getPrizePool",
      "outputs": [
        {
          "internalType": "uint256",
          "name": "",
          "type": "uint256"
        }
      ],
      "stateMutability": "view",
      "type": "function"
    },
    {
      "inputs": [],
      "name": "getRandomNumber",
      "outputs": [
        {
          "internalType": "uint256",
          "name": "randomNumber",
          "type": "uint256"
        }
      ],
      "stateMutability": "view",
      "type": "function"
    },
    {
      "inputs": [
        {
          "internalType": "uint256",
          "name": "index",
          "type": "uint256"
        }
      ],
      "name": "getSlot",
      "outputs": [
        {
          "internalType": "address",
          "name": "",
          "type": "address"
        }
      ],
      "stateMutability": "view",
      "type": "function"
    },
    {
      "inputs": [],
      "name": "getTokenName",
      "outputs": [
        {
          "internalType": "string",
          "name": "",
          "type": "string"
        }
      ],
      "stateMutability": "view",
      "type": "function"
    },
    {
      "inputs": [],
      "name": "getTokenSymbol",
      "outputs": [
        {
          "internalType": "string",
          "name": "",
          "type": "string"
        }
      ],
      "stateMutability": "view",
      "type": "function"
    },
    {
      "inputs": [
        {
          "internalType": "uint256",
          "name": "closingTime",
          "type": "uint256"
        }
      ],
      "name": "openBets",
      "outputs": [],
      "stateMutability": "nonpayable",
      "type": "function"
    },
    {
      "inputs": [],
      "name": "owner",
      "outputs": [
        {
          "internalType": "address",
          "name": "",
          "type": "address"
        }
      ],
      "stateMutability": "view",
      "type": "function"
    },
    {
      "inputs": [],
      "name": "ownerPool",
      "outputs": [
        {
          "internalType": "uint256",
          "name": "",
          "type": "uint256"
        }
      ],
      "stateMutability": "view",
      "type": "function"
    },
    {
      "inputs": [
        {
          "internalType": "uint256",
          "name": "amount",
          "type": "uint256"
        }
      ],
      "name": "ownerWithdraw",
      "outputs": [],
      "stateMutability": "nonpayable",
      "type": "function"
    },
    {
      "inputs": [],
      "name": "paymentToken",
      "outputs": [
        {
          "internalType": "contract LotteryToken",
          "name": "",
          "type": "address"
        }
      ],
      "stateMutability": "view",
      "type": "function"
    },
    {
      "inputs": [
        {
          "internalType": "address",
          "name": "",
          "type": "address"
        }
      ],
      "name": "prize",
      "outputs": [
        {
          "internalType": "uint256",
          "name": "",
          "type": "uint256"
        }
      ],
      "stateMutability": "view",
      "type": "function"
    },
    {
      "inputs": [],
      "name": "prizePool",
      "outputs": [
        {
          "internalType": "uint256",
          "name": "",
          "type": "uint256"
        }
      ],
      "stateMutability": "view",
      "type": "function"
    },
    {
      "inputs": [
        {
          "internalType": "uint256",
          "name": "amount",
          "type": "uint256"
        }
      ],
      "name": "prizeWithdraw",
      "outputs": [],
      "stateMutability": "nonpayable",
      "type": "function"
    },
    {
      "inputs": [],
      "name": "purchaseRatio",
      "outputs": [
        {
          "internalType": "uint256",
          "name": "",
          "type": "uint256"
        }
      ],
      "stateMutability": "view",
      "type": "function"
    },
    {
      "inputs": [],
      "name": "purchaseTokens",
      "outputs": [],
      "stateMutability": "payable",
      "type": "function"
    },
    {
      "inputs": [],
      "name": "renounceOwnership",
      "outputs": [],
      "stateMutability": "nonpayable",
      "type": "function"
    },
    {
      "inputs": [
        {
          "internalType": "uint256",
          "name": "amount",
          "type": "uint256"
        }
      ],
      "name": "returnTokens",
      "outputs": [],
      "stateMutability": "nonpayable",
      "type": "function"
    },
    {
      "inputs": [
        {
          "internalType": "address",
          "name": "newOwner",
          "type": "address"
        }
      ],
      "name": "transferOwnership",
      "outputs": [],
      "stateMutability": "nonpayable",
      "type": "function"
    }
  ],
  "bytecode": "0x608060405234801561001057600080fd5b50604051614353380380614353833981810160405281019061003291906103c6565b33600073ffffffffffffffffffffffffffffffffffffffff168173ffffffffffffffffffffffffffffffffffffffff16036100a55760006040517f1e4fbdf700000000000000000000000000000000000000000000000000000000815260040161009c91906104ba565b60405180910390fd5b6100b48161014a60201b60201c565b5084846040516100c39061020e565b6100ce92919061052a565b604051809103906000f0801580156100ea573d6000803e3d6000fd5b50600160006101000a81548173ffffffffffffffffffffffffffffffffffffffff021916908373ffffffffffffffffffffffffffffffffffffffff1602179055508260028190555081600381905550806004819055505050505050610561565b60008060009054906101000a900473ffffffffffffffffffffffffffffffffffffffff169050816000806101000a81548173ffffffffffffffffffffffffffffffffffffffff021916908373ffffffffffffffffffffffffffffffffffffffff1602179055508173ffffffffffffffffffffffffffffffffffffffff168173ffffffffffffffffffffffffffffffffffffffff167f8be0079c531659141344cd1fd0a4f28419497f9722a3daafe3b4186f6b6457e060405160405180910390a35050565b611f218061243283390190565b6000604051905090565b600080fd5b600080fd5b600080fd5b600080fd5b6000601f19601f8301169050919050565b7f4e487b7100000000000000000000000000000000000000000000000000000000600052604160045260246000fd5b61028282610239565b810181811067ffffffffffffffff821117156102a1576102a061024a565b5b80604052505050565b60006102b461021b565b90506102c08282610279565b919050565b600067ffffffffffffffff8211156102e0576102df61024a565b5b6102e982610239565b9050602081019050919050565b60005b838110156103145780820151818401526020810190506102f9565b60008484015250505050565b600061033361032e846102c5565b6102aa565b90508281526020810184848401111561034f5761034e610234565b5b61035a8482856102f6565b509392505050565b600082601f8301126103775761037661022f565b5b8151610387848260208601610320565b91505092915050565b6000819050919050565b6103a381610390565b81146103ae57600080fd5b50565b6000815190506103c08161039a565b92915050565b600080600080600060a086880312156103e2576103e1610225565b5b600086015167ffffffffffffffff811115610400576103ff61022a565b5b61040c88828901610362565b955050602086015167ffffffffffffffff81111561042d5761042c61022a565b5b61043988828901610362565b945050604061044a888289016103b1565b935050606061045b888289016103b1565b925050608061046c888289016103b1565b9150509295509295909350565b600073ffffffffffffffffffffffffffffffffffffffff82169050919050565b60006104a482610479565b9050919050565b6104b481610499565b82525050565b60006020820190506104cf60008301846104ab565b92915050565b600081519050919050565b600082825260208201905092915050565b60006104fc826104d5565b61050681856104e0565b93506105168185602086016102f6565b61051f81610239565b840191505092915050565b6000604082019050818103600083015261054481856104f1565b9050818103602083015261055881846104f1565b90509392505050565b611ec2806105706000396000f3fe6080604052600436106101d85760003560e01c8063729e91e911610102578063990a49f511610095578063dbdff2c111610064578063dbdff2c114610635578063dea182c114610660578063f1850af81461068b578063f2fde38b146106b6576101d8565b8063990a49f51461058b578063bd2178ce146105b4578063cfd8a175146105df578063d1b258ff1461060a576101d8565b8063884bf67c116100d1578063884bf67c146104cd5780638adf9c1f146104f85780638da5cb5b1461053557806395cadc4714610560576101d8565b8063729e91e9146104115780637eba7ba61461043a578063841e6ce914610477578063862b092b146104a2576101d8565b80633ae1786f1161017a57806360c66fc81161014957806360c66fc81461037b5780636fd09816146103b8578063715018a6146103cf578063719ce73e146103e6576101d8565b80633ae1786f146102d35780633cc121e6146102fc578063456563b0146103255780634cd456b014610350576101d8565b80632b65e040116101b65780632b65e0401461024a5780633013ce29146102755780633290ce29146102a057806333f707d1146102aa576101d8565b806311610c25146101dd57806318c34965146101f45780632531455a1461021f575b600080fd5b3480156101e957600080fd5b506101f26106df565b005b34801561020057600080fd5b50610209610888565b604051610216919061147d565b60405180910390f35b34801561022b57600080fd5b5061023461088e565b604051610241919061147d565b60405180910390f35b34801561025657600080fd5b5061025f610898565b60405161026c919061147d565b60405180910390f35b34801561028157600080fd5b5061028a61089e565b6040516102979190611517565b60405180910390f35b6102a86108c4565b005b3480156102b657600080fd5b506102d160048036038101906102cc9190611572565b610962565b005b3480156102df57600080fd5b506102fa60048036038101906102f59190611572565b610a6c565b005b34801561030857600080fd5b50610323600480360381019061031e9190611572565b610b52565b005b34801561033157600080fd5b5061033a610cce565b604051610347919061147d565b60405180910390f35b34801561035c57600080fd5b50610365610cdb565b60405161037291906115ba565b60405180910390f35b34801561038757600080fd5b506103a2600480360381019061039d9190611613565b610cf2565b6040516103af919061147d565b60405180910390f35b3480156103c457600080fd5b506103cd610d3b565b005b3480156103db57600080fd5b506103e4610eca565b005b3480156103f257600080fd5b506103fb610ede565b604051610408919061147d565b60405180910390f35b34801561041d57600080fd5b5061043860048036038101906104339190611572565b610ee4565b005b34801561044657600080fd5b50610461600480360381019061045c9190611572565b610f19565b60405161046e919061164f565b60405180910390f35b34801561048357600080fd5b5061048c610fa8565b604051610499919061147d565b60405180910390f35b3480156104ae57600080fd5b506104b7610fae565b6040516104c491906116fa565b60405180910390f35b3480156104d957600080fd5b506104e261104b565b6040516104ef919061147d565b60405180910390f35b34801561050457600080fd5b5061051f600480360381019061051a9190611613565b611055565b60405161052c919061147d565b60405180910390f35b34801561054157600080fd5b5061054a61106d565b604051610557919061164f565b60405180910390f35b34801561056c57600080fd5b50610575611096565b604051610582919061147d565b60405180910390f35b34801561059757600080fd5b506105b260048036038101906105ad9190611572565b61109c565b005b3480156105c057600080fd5b506105c961115b565b6040516105d6919061147d565b60405180910390f35b3480156105eb57600080fd5b506105f4611165565b604051610601919061147d565b60405180910390f35b34801561061657600080fd5b5061061f61116b565b60405161062c91906115ba565b60405180910390f35b34801561064157600080fd5b5061064a61117e565b604051610657919061147d565b60405180910390f35b34801561066c57600080fd5b50610675611186565b604051610682919061164f565b60405180910390f35b34801561069757600080fd5b506106a06111b0565b6040516106ad91906116fa565b60405180910390f35b3480156106c257600080fd5b506106dd60048036038101906106d89190611613565b61124d565b005b600760009054906101000a900460ff1680156106fc575060085442105b61073b576040517f08c379a000000000000000000000000000000000000000000000000000000000815260040161073290611768565b60405180910390fd5b6004546006600082825461074f91906117b7565b925050819055506003546005600082825461076a91906117b7565b92505081905550600a339080600181540180825580915050600190039060005260206000200160009091909190916101000a81548173ffffffffffffffffffffffffffffffffffffffff021916908373ffffffffffffffffffffffffffffffffffffffff160217905550600160009054906101000a900473ffffffffffffffffffffffffffffffffffffffff1673ffffffffffffffffffffffffffffffffffffffff166323b872dd333060045460035461082491906117b7565b6040518463ffffffff1660e01b8152600401610842939291906117eb565b6020604051808303816000875af1158015610861573d6000803e3d6000fd5b505050506040513d601f19601f82011682018060405250810190610885919061184e565b50565b60085481565b6000600654905090565b60065481565b600160009054906101000a900473ffffffffffffffffffffffffffffffffffffffff1681565b600160009054906101000a900473ffffffffffffffffffffffffffffffffffffffff1673ffffffffffffffffffffffffffffffffffffffff166340c10f193360025434610911919061187b565b6040518363ffffffff1660e01b815260040161092e9291906118bd565b600060405180830381600087803b15801561094857600080fd5b505af115801561095c573d6000803e3d6000fd5b50505050565b61096a6112d3565b6006548111156109af576040517f08c379a00000000000000000000000000000000000000000000000000000000081526004016109a690611932565b60405180910390fd5b80600660008282546109c19190611952565b92505081905550600160009054906101000a900473ffffffffffffffffffffffffffffffffffffffff1673ffffffffffffffffffffffffffffffffffffffff1663a9059cbb33836040518363ffffffff1660e01b8152600401610a259291906118bd565b6020604051808303816000875af1158015610a44573d6000803e3d6000fd5b505050506040513d601f19601f82011682018060405250810190610a68919061184e565b5050565b600160009054906101000a900473ffffffffffffffffffffffffffffffffffffffff1673ffffffffffffffffffffffffffffffffffffffff166379cc679033836040518363ffffffff1660e01b8152600401610ac99291906118bd565b600060405180830381600087803b158015610ae357600080fd5b505af1158015610af7573d6000803e3d6000fd5b505050503373ffffffffffffffffffffffffffffffffffffffff166108fc60025483610b2391906119b5565b9081150290604051600060405180830381858888f19350505050158015610b4e573d6000803e3d6000fd5b5050565b600960003373ffffffffffffffffffffffffffffffffffffffff1673ffffffffffffffffffffffffffffffffffffffff16815260200190815260200160002054811115610bd4576040517f08c379a0000000000000000000000000000000000000000000000000000000008152600401610bcb90611a32565b60405180910390fd5b80600960003373ffffffffffffffffffffffffffffffffffffffff1673ffffffffffffffffffffffffffffffffffffffff1681526020019081526020016000206000828254610c239190611952565b92505081905550600160009054906101000a900473ffffffffffffffffffffffffffffffffffffffff1673ffffffffffffffffffffffffffffffffffffffff1663a9059cbb33836040518363ffffffff1660e01b8152600401610c879291906118bd565b6020604051808303816000875af1158015610ca6573d6000803e3d6000fd5b505050506040513d601f19601f82011682018060405250810190610cca919061184e565b5050565b6000600a80549050905090565b6000600760009054906101000a900460ff16905090565b6000600960008373ffffffffffffffffffffffffffffffffffffffff1673ffffffffffffffffffffffffffffffffffffffff168152602001908152602001600020549050919050565b600854421015610d80576040517f08c379a0000000000000000000000000000000000000000000000000000000008152600401610d7790611a9e565b60405180910390fd5b600760009054906101000a900460ff16610dcf576040517f08c379a0000000000000000000000000000000000000000000000000000000008152600401610dc690611b0a565b60405180910390fd5b6000600a805490501115610ead576000600a80549050610ded61117e565b610df79190611b2a565b90506000600a8281548110610e0f57610e0e611b5b565b5b9060005260206000200160009054906101000a900473ffffffffffffffffffffffffffffffffffffffff169050600554600960008373ffffffffffffffffffffffffffffffffffffffff1673ffffffffffffffffffffffffffffffffffffffff1681526020019081526020016000206000828254610e8d91906117b7565b925050819055506000600581905550600a6000610eaa9190611426565b50505b6000600760006101000a81548160ff021916908315150217905550565b610ed26112d3565b610edc600061135a565b565b60055481565b60008111610ef157600080fd5b5b6000811115610f1657610f036106df565b8080610f0e90611b8a565b915050610ef2565b50565b6000600a805490508210610f62576040517f08c379a0000000000000000000000000000000000000000000000000000000008152600401610f5990611bff565b60405180910390fd5b600a8281548110610f7657610f75611b5b565b5b9060005260206000200160009054906101000a900473ffffffffffffffffffffffffffffffffffffffff169050919050565b60045481565b6060600160009054906101000a900473ffffffffffffffffffffffffffffffffffffffff1673ffffffffffffffffffffffffffffffffffffffff166306fdde036040518163ffffffff1660e01b8152600401600060405180830381865afa15801561101d573d6000803e3d6000fd5b505050506040513d6000823e3d601f19601f820116820180604052508101906110469190611d45565b905090565b6000600554905090565b60096020528060005260406000206000915090505481565b60008060009054906101000a900473ffffffffffffffffffffffffffffffffffffffff16905090565b60025481565b6110a46112d3565b600760009054906101000a900460ff16156110f4576040517f08c379a00000000000000000000000000000000000000000000000000000000081526004016110eb90611dda565b60405180910390fd5b428111611136576040517f08c379a000000000000000000000000000000000000000000000000000000000815260040161112d90611e6c565b60405180910390fd5b806008819055506001600760006101000a81548160ff02191690831515021790555050565b6000600854905090565b60035481565b600760009054906101000a900460ff1681565b600044905090565b6000600160009054906101000a900473ffffffffffffffffffffffffffffffffffffffff16905090565b6060600160009054906101000a900473ffffffffffffffffffffffffffffffffffffffff1673ffffffffffffffffffffffffffffffffffffffff166395d89b416040518163ffffffff1660e01b8152600401600060405180830381865afa15801561121f573d6000803e3d6000fd5b505050506040513d6000823e3d601f19601f820116820180604052508101906112489190611d45565b905090565b6112556112d3565b600073ffffffffffffffffffffffffffffffffffffffff168173ffffffffffffffffffffffffffffffffffffffff16036112c75760006040517f1e4fbdf70000000000000000000000000000000000000000000000000000000081526004016112be919061164f565b60405180910390fd5b6112d08161135a565b50565b6112db61141e565b73ffffffffffffffffffffffffffffffffffffffff166112f961106d565b73ffffffffffffffffffffffffffffffffffffffff16146113585761131c61141e565b6040517f118cdaa700000000000000000000000000000000000000000000000000000000815260040161134f919061164f565b60405180910390fd5b565b60008060009054906101000a900473ffffffffffffffffffffffffffffffffffffffff169050816000806101000a81548173ffffffffffffffffffffffffffffffffffffffff021916908373ffffffffffffffffffffffffffffffffffffffff1602179055508173ffffffffffffffffffffffffffffffffffffffff168173ffffffffffffffffffffffffffffffffffffffff167f8be0079c531659141344cd1fd0a4f28419497f9722a3daafe3b4186f6b6457e060405160405180910390a35050565b600033905090565b50805460008255906000526020600020908101906114449190611447565b50565b5b80821115611460576000816000905550600101611448565b5090565b6000819050919050565b61147781611464565b82525050565b6000602082019050611492600083018461146e565b92915050565b600073ffffffffffffffffffffffffffffffffffffffff82169050919050565b6000819050919050565b60006114dd6114d86114d384611498565b6114b8565b611498565b9050919050565b60006114ef826114c2565b9050919050565b6000611501826114e4565b9050919050565b611511816114f6565b82525050565b600060208201905061152c6000830184611508565b92915050565b6000604051905090565b600080fd5b600080fd5b61154f81611464565b811461155a57600080fd5b50565b60008135905061156c81611546565b92915050565b6000602082840312156115885761158761153c565b5b60006115968482850161155d565b91505092915050565b60008115159050919050565b6115b48161159f565b82525050565b60006020820190506115cf60008301846115ab565b92915050565b60006115e082611498565b9050919050565b6115f0816115d5565b81146115fb57600080fd5b50565b60008135905061160d816115e7565b92915050565b6000602082840312156116295761162861153c565b5b6000611637848285016115fe565b91505092915050565b611649816115d5565b82525050565b60006020820190506116646000830184611640565b92915050565b600081519050919050565b600082825260208201905092915050565b60005b838110156116a4578082015181840152602081019050611689565b60008484015250505050565b6000601f19601f8301169050919050565b60006116cc8261166a565b6116d68185611675565b93506116e6818560208601611686565b6116ef816116b0565b840191505092915050565b6000602082019050818103600083015261171481846116c1565b905092915050565b7f4c6f747465727920697320636c6f736564000000000000000000000000000000600082015250565b6000611752601183611675565b915061175d8261171c565b602082019050919050565b6000602082019050818103600083015261178181611745565b9050919050565b7f4e487b7100000000000000000000000000000000000000000000000000000000600052601160045260246000fd5b60006117c282611464565b91506117cd83611464565b92508282019050808211156117e5576117e4611788565b5b92915050565b60006060820190506118006000830186611640565b61180d6020830185611640565b61181a604083018461146e565b949350505050565b61182b8161159f565b811461183657600080fd5b50565b60008151905061184881611822565b92915050565b6000602082840312156118645761186361153c565b5b600061187284828501611839565b91505092915050565b600061188682611464565b915061189183611464565b925082820261189f81611464565b915082820484148315176118b6576118b5611788565b5b5092915050565b60006040820190506118d26000830185611640565b6118df602083018461146e565b9392505050565b7f4e6f7420656e6f756768206665657320636f6c6c656374656400000000000000600082015250565b600061191c601983611675565b9150611927826118e6565b602082019050919050565b6000602082019050818103600083015261194b8161190f565b9050919050565b600061195d82611464565b915061196883611464565b92508282039050818111156119805761197f611788565b5b92915050565b7f4e487b7100000000000000000000000000000000000000000000000000000000600052601260045260246000fd5b60006119c082611464565b91506119cb83611464565b9250826119db576119da611986565b5b828204905092915050565b7f4e6f7420656e6f756768207072697a6500000000000000000000000000000000600082015250565b6000611a1c601083611675565b9150611a27826119e6565b602082019050919050565b60006020820190508181036000830152611a4b81611a0f565b9050919050565b7f546f6f20736f6f6e20746f20636c6f7365000000000000000000000000000000600082015250565b6000611a88601183611675565b9150611a9382611a52565b602082019050919050565b60006020820190508181036000830152611ab781611a7b565b9050919050565b7f416c726561647920636c6f736564000000000000000000000000000000000000600082015250565b6000611af4600e83611675565b9150611aff82611abe565b602082019050919050565b60006020820190508181036000830152611b2381611ae7565b9050919050565b6000611b3582611464565b9150611b4083611464565b925082611b5057611b4f611986565b5b828206905092915050565b7f4e487b7100000000000000000000000000000000000000000000000000000000600052603260045260246000fd5b6000611b9582611464565b915060008203611ba857611ba7611788565b5b600182039050919050565b7f496e646578206f7574206f6620626f756e647300000000000000000000000000600082015250565b6000611be9601383611675565b9150611bf482611bb3565b602082019050919050565b60006020820190508181036000830152611c1881611bdc565b9050919050565b600080fd5b600080fd5b7f4e487b7100000000000000000000000000000000000000000000000000000000600052604160045260246000fd5b611c61826116b0565b810181811067ffffffffffffffff82111715611c8057611c7f611c29565b5b80604052505050565b6000611c93611532565b9050611c9f8282611c58565b919050565b600067ffffffffffffffff821115611cbf57611cbe611c29565b5b611cc8826116b0565b9050602081019050919050565b6000611ce8611ce384611ca4565b611c89565b905082815260208101848484011115611d0457611d03611c24565b5b611d0f848285611686565b509392505050565b600082601f830112611d2c57611d2b611c1f565b5b8151611d3c848260208601611cd5565b91505092915050565b600060208284031215611d5b57611d5a61153c565b5b600082015167ffffffffffffffff811115611d7957611d78611541565b5b611d8584828501611d17565b91505092915050565b7f4c6f7474657279206973206f70656e0000000000000000000000000000000000600082015250565b6000611dc4600f83611675565b9150611dcf82611d8e565b602082019050919050565b60006020820190508181036000830152611df381611db7565b9050919050565b7f436c6f73696e672074696d65206d75737420626520696e20746865206675747560008201527f7265000000000000000000000000000000000000000000000000000000000000602082015250565b6000611e56602283611675565b9150611e6182611dfa565b604082019050919050565b60006020820190508181036000830152611e8581611e49565b905091905056fea2646970667358221220b339a5e1e7ed214971df1c53757395e7624722b8707e12dfe2b125789ac2c8b664736f6c634300081c0033608060405234801561001057600080fd5b50604051611f21380380611f2183398181016040528101906100329190610388565b818181600390816100439190610621565b5080600490816100539190610621565b5050506100696000801b336100a260201b60201c565b5061009a7f9f2df0fed2c77648de5860a4cc508cd0818c85b8b8a1ab4ceeef8d981c8956a6336100a260201b60201c565b5050506106f3565b60006100b483836101a060201b60201c565b6101955760016005600085815260200190815260200160002060000160008473ffffffffffffffffffffffffffffffffffffffff1673ffffffffffffffffffffffffffffffffffffffff16815260200190815260200160002060006101000a81548160ff02191690831515021790555061013261020b60201b60201c565b73ffffffffffffffffffffffffffffffffffffffff168273ffffffffffffffffffffffffffffffffffffffff16847f2f8788117e7eff1d82e926ec794901d17c78024a50270940304540a733656f0d60405160405180910390a46001905061019a565b600090505b92915050565b60006005600084815260200190815260200160002060000160008373ffffffffffffffffffffffffffffffffffffffff1673ffffffffffffffffffffffffffffffffffffffff16815260200190815260200160002060009054906101000a900460ff16905092915050565b600033905090565b6000604051905090565b600080fd5b600080fd5b600080fd5b600080fd5b6000601f19601f8301169050919050565b7f4e487b7100000000000000000000000000000000000000000000000000000000600052604160045260246000fd5b61027a82610231565b810181811067ffffffffffffffff8211171561029957610298610242565b5b80604052505050565b60006102ac610213565b90506102b88282610271565b919050565b600067ffffffffffffffff8211156102d8576102d7610242565b5b6102e182610231565b9050602081019050919050565b60005b8381101561030c5780820151818401526020810190506102f1565b60008484015250505050565b600061032b610326846102bd565b6102a2565b9050828152602081018484840111156103475761034661022c565b5b6103528482856102ee565b509392505050565b600082601f83011261036f5761036e610227565b5b815161037f848260208601610318565b91505092915050565b6000806040838503121561039f5761039e61021d565b5b600083015167ffffffffffffffff8111156103bd576103bc610222565b5b6103c98582860161035a565b925050602083015167ffffffffffffffff8111156103ea576103e9610222565b5b6103f68582860161035a565b9150509250929050565b600081519050919050565b7f4e487b7100000000000000000000000000000000000000000000000000000000600052602260045260246000fd5b6000600282049050600182168061045257607f821691505b6020821081036104655761046461040b565b5b50919050565b60008190508160005260206000209050919050565b60006020601f8301049050919050565b600082821b905092915050565b6000600883026104cd7fffffffffffffffffffffffffffffffffffffffffffffffffffffffffffffffff82610490565b6104d78683610490565b95508019841693508086168417925050509392505050565b6000819050919050565b6000819050919050565b600061051e610519610514846104ef565b6104f9565b6104ef565b9050919050565b6000819050919050565b61053883610503565b61054c61054482610525565b84845461049d565b825550505050565b600090565b610561610554565b61056c81848461052f565b505050565b5b8181101561059057610585600082610559565b600181019050610572565b5050565b601f8211156105d5576105a68161046b565b6105af84610480565b810160208510156105be578190505b6105d26105ca85610480565b830182610571565b50505b505050565b600082821c905092915050565b60006105f8600019846008026105da565b1980831691505092915050565b600061061183836105e7565b9150826002028217905092915050565b61062a82610400565b67ffffffffffffffff81111561064357610642610242565b5b61064d825461043a565b610658828285610594565b600060209050601f83116001811461068b5760008415610679578287015190505b6106838582610605565b8655506106eb565b601f1984166106998661046b565b60005b828110156106c15784890151825560018201915060208501945060208101905061069c565b868310156106de57848901516106da601f8916826105e7565b8355505b6001600288020188555050505b505050505050565b61181f806107026000396000f3fe608060405234801561001057600080fd5b506004361061012c5760003560e01c806342966c68116100ad578063a217fddf11610071578063a217fddf14610355578063a9059cbb14610373578063d5391393146103a3578063d547741f146103c1578063dd62ed3e146103dd5761012c565b806342966c681461029f57806370a08231146102bb57806379cc6790146102eb57806391d148541461030757806395d89b41146103375761012c565b8063248a9ca3116100f4578063248a9ca3146101fd5780632f2ff15d1461022d578063313ce5671461024957806336568abe1461026757806340c10f19146102835761012c565b806301ffc9a71461013157806306fdde0314610161578063095ea7b31461017f57806318160ddd146101af57806323b872dd146101cd575b600080fd5b61014b60048036038101906101469190611298565b61040d565b60405161015891906112e0565b60405180910390f35b610169610487565b604051610176919061138b565b60405180910390f35b61019960048036038101906101949190611441565b610519565b6040516101a691906112e0565b60405180910390f35b6101b761053c565b6040516101c49190611490565b60405180910390f35b6101e760048036038101906101e291906114ab565b610546565b6040516101f491906112e0565b60405180910390f35b61021760048036038101906102129190611534565b610575565b6040516102249190611570565b60405180910390f35b6102476004803603810190610242919061158b565b610595565b005b6102516105b7565b60405161025e91906115e7565b60405180910390f35b610281600480360381019061027c919061158b565b6105c0565b005b61029d60048036038101906102989190611441565b61063b565b005b6102b960048036038101906102b49190611602565b610674565b005b6102d560048036038101906102d0919061162f565b610688565b6040516102e29190611490565b60405180910390f35b61030560048036038101906103009190611441565b6106d0565b005b610321600480360381019061031c919061158b565b6106f0565b60405161032e91906112e0565b60405180910390f35b61033f61075b565b60405161034c919061138b565b60405180910390f35b61035d6107ed565b60405161036a9190611570565b60405180910390f35b61038d60048036038101906103889190611441565b6107f4565b60405161039a91906112e0565b60405180910390f35b6103ab610817565b6040516103b89190611570565b60405180910390f35b6103db60048036038101906103d6919061158b565b61083b565b005b6103f760048036038101906103f2919061165c565b61085d565b6040516104049190611490565b60405180910390f35b60007f7965db0b000000000000000000000000000000000000000000000000000000007bffffffffffffffffffffffffffffffffffffffffffffffffffffffff1916827bffffffffffffffffffffffffffffffffffffffffffffffffffffffff19161480610480575061047f826108e4565b5b9050919050565b606060038054610496906116cb565b80601f01602080910402602001604051908101604052809291908181526020018280546104c2906116cb565b801561050f5780601f106104e45761010080835404028352916020019161050f565b820191906000526020600020905b8154815290600101906020018083116104f257829003601f168201915b5050505050905090565b60008061052461094e565b9050610531818585610956565b600191505092915050565b6000600254905090565b60008061055161094e565b905061055e858285610968565b6105698585856109fd565b60019150509392505050565b600060056000838152602001908152602001600020600101549050919050565b61059e82610575565b6105a781610af1565b6105b18383610b05565b50505050565b60006012905090565b6105c861094e565b73ffffffffffffffffffffffffffffffffffffffff168173ffffffffffffffffffffffffffffffffffffffff161461062c576040517f6697b23200000000000000000000000000000000000000000000000000000000815260040160405180910390fd5b6106368282610bf7565b505050565b7f9f2df0fed2c77648de5860a4cc508cd0818c85b8b8a1ab4ceeef8d981c8956a661066581610af1565b61066f8383610cea565b505050565b61068561067f61094e565b82610d6c565b50565b60008060008373ffffffffffffffffffffffffffffffffffffffff1673ffffffffffffffffffffffffffffffffffffffff168152602001908152602001600020549050919050565b6106e2826106dc61094e565b83610968565b6106ec8282610d6c565b5050565b60006005600084815260200190815260200160002060000160008373ffffffffffffffffffffffffffffffffffffffff1673ffffffffffffffffffffffffffffffffffffffff16815260200190815260200160002060009054906101000a900460ff16905092915050565b60606004805461076a906116cb565b80601f0160208091040260200160405190810160405280929190818152602001828054610796906116cb565b80156107e35780601f106107b8576101008083540402835291602001916107e3565b820191906000526020600020905b8154815290600101906020018083116107c657829003601f168201915b5050505050905090565b6000801b81565b6000806107ff61094e565b905061080c8185856109fd565b600191505092915050565b7f9f2df0fed2c77648de5860a4cc508cd0818c85b8b8a1ab4ceeef8d981c8956a681565b61084482610575565b61084d81610af1565b6108578383610bf7565b50505050565b6000600160008473ffffffffffffffffffffffffffffffffffffffff1673ffffffffffffffffffffffffffffffffffffffff16815260200190815260200160002060008373ffffffffffffffffffffffffffffffffffffffff1673ffffffffffffffffffffffffffffffffffffffff16815260200190815260200160002054905092915050565b60007f01ffc9a7000000000000000000000000000000000000000000000000000000007bffffffffffffffffffffffffffffffffffffffffffffffffffffffff1916827bffffffffffffffffffffffffffffffffffffffffffffffffffffffff1916149050919050565b600033905090565b6109638383836001610dee565b505050565b6000610974848461085d565b90507fffffffffffffffffffffffffffffffffffffffffffffffffffffffffffffffff8110156109f757818110156109e7578281836040517ffb8f41b20000000000000000000000000000000000000000000000000000000081526004016109de9392919061170b565b60405180910390fd5b6109f684848484036000610dee565b5b50505050565b600073ffffffffffffffffffffffffffffffffffffffff168373ffffffffffffffffffffffffffffffffffffffff1603610a6f5760006040517f96c6fd1e000000000000000000000000000000000000000000000000000000008152600401610a669190611742565b60405180910390fd5b600073ffffffffffffffffffffffffffffffffffffffff168273ffffffffffffffffffffffffffffffffffffffff1603610ae15760006040517fec442f05000000000000000000000000000000000000000000000000000000008152600401610ad89190611742565b60405180910390fd5b610aec838383610fc5565b505050565b610b0281610afd61094e565b6111ea565b50565b6000610b1183836106f0565b610bec5760016005600085815260200190815260200160002060000160008473ffffffffffffffffffffffffffffffffffffffff1673ffffffffffffffffffffffffffffffffffffffff16815260200190815260200160002060006101000a81548160ff021916908315150217905550610b8961094e565b73ffffffffffffffffffffffffffffffffffffffff168273ffffffffffffffffffffffffffffffffffffffff16847f2f8788117e7eff1d82e926ec794901d17c78024a50270940304540a733656f0d60405160405180910390a460019050610bf1565b600090505b92915050565b6000610c0383836106f0565b15610cdf5760006005600085815260200190815260200160002060000160008473ffffffffffffffffffffffffffffffffffffffff1673ffffffffffffffffffffffffffffffffffffffff16815260200190815260200160002060006101000a81548160ff021916908315150217905550610c7c61094e565b73ffffffffffffffffffffffffffffffffffffffff168273ffffffffffffffffffffffffffffffffffffffff16847ff6391f5c32d9c69d2a47ea670b442974b53935d1edc7fd64eb21e047a839171b60405160405180910390a460019050610ce4565b600090505b92915050565b600073ffffffffffffffffffffffffffffffffffffffff168273ffffffffffffffffffffffffffffffffffffffff1603610d5c5760006040517fec442f05000000000000000000000000000000000000000000000000000000008152600401610d539190611742565b60405180910390fd5b610d6860008383610fc5565b5050565b600073ffffffffffffffffffffffffffffffffffffffff168273ffffffffffffffffffffffffffffffffffffffff1603610dde5760006040517f96c6fd1e000000000000000000000000000000000000000000000000000000008152600401610dd59190611742565b60405180910390fd5b610dea82600083610fc5565b5050565b600073ffffffffffffffffffffffffffffffffffffffff168473ffffffffffffffffffffffffffffffffffffffff1603610e605760006040517fe602df05000000000000000000000000000000000000000000000000000000008152600401610e579190611742565b60405180910390fd5b600073ffffffffffffffffffffffffffffffffffffffff168373ffffffffffffffffffffffffffffffffffffffff1603610ed25760006040517f94280d62000000000000000000000000000000000000000000000000000000008152600401610ec99190611742565b60405180910390fd5b81600160008673ffffffffffffffffffffffffffffffffffffffff1673ffffffffffffffffffffffffffffffffffffffff16815260200190815260200160002060008573ffffffffffffffffffffffffffffffffffffffff1673ffffffffffffffffffffffffffffffffffffffff168152602001908152602001600020819055508015610fbf578273ffffffffffffffffffffffffffffffffffffffff168473ffffffffffffffffffffffffffffffffffffffff167f8c5be1e5ebec7d5bd14f71427d1e84f3dd0314c0f7b2291e5b200ac8c7c3b92584604051610fb69190611490565b60405180910390a35b50505050565b600073ffffffffffffffffffffffffffffffffffffffff168373ffffffffffffffffffffffffffffffffffffffff160361101757806002600082825461100b919061178c565b925050819055506110ea565b60008060008573ffffffffffffffffffffffffffffffffffffffff1673ffffffffffffffffffffffffffffffffffffffff168152602001908152602001600020549050818110156110a3578381836040517fe450d38c00000000000000000000000000000000000000000000000000000000815260040161109a9392919061170b565b60405180910390fd5b8181036000808673ffffffffffffffffffffffffffffffffffffffff1673ffffffffffffffffffffffffffffffffffffffff16815260200190815260200160002081905550505b600073ffffffffffffffffffffffffffffffffffffffff168273ffffffffffffffffffffffffffffffffffffffff16036111335780600260008282540392505081905550611180565b806000808473ffffffffffffffffffffffffffffffffffffffff1673ffffffffffffffffffffffffffffffffffffffff168152602001908152602001600020600082825401925050819055505b8173ffffffffffffffffffffffffffffffffffffffff168373ffffffffffffffffffffffffffffffffffffffff167fddf252ad1be2c89b69c2b068fc378daa952ba7f163c4a11628f55a4df523b3ef836040516111dd9190611490565b60405180910390a3505050565b6111f482826106f0565b6112375780826040517fe2517d3f00000000000000000000000000000000000000000000000000000000815260040161122e9291906117c0565b60405180910390fd5b5050565b600080fd5b60007fffffffff0000000000000000000000000000000000000000000000000000000082169050919050565b61127581611240565b811461128057600080fd5b50565b6000813590506112928161126c565b92915050565b6000602082840312156112ae576112ad61123b565b5b60006112bc84828501611283565b91505092915050565b60008115159050919050565b6112da816112c5565b82525050565b60006020820190506112f560008301846112d1565b92915050565b600081519050919050565b600082825260208201905092915050565b60005b8381101561133557808201518184015260208101905061131a565b60008484015250505050565b6000601f19601f8301169050919050565b600061135d826112fb565b6113678185611306565b9350611377818560208601611317565b61138081611341565b840191505092915050565b600060208201905081810360008301526113a58184611352565b905092915050565b600073ffffffffffffffffffffffffffffffffffffffff82169050919050565b60006113d8826113ad565b9050919050565b6113e8816113cd565b81146113f357600080fd5b50565b600081359050611405816113df565b92915050565b6000819050919050565b61141e8161140b565b811461142957600080fd5b50565b60008135905061143b81611415565b92915050565b600080604083850312156114585761145761123b565b5b6000611466858286016113f6565b92505060206114778582860161142c565b9150509250929050565b61148a8161140b565b82525050565b60006020820190506114a56000830184611481565b92915050565b6000806000606084860312156114c4576114c361123b565b5b60006114d2868287016113f6565b93505060206114e3868287016113f6565b92505060406114f48682870161142c565b9150509250925092565b6000819050919050565b611511816114fe565b811461151c57600080fd5b50565b60008135905061152e81611508565b92915050565b60006020828403121561154a5761154961123b565b5b60006115588482850161151f565b91505092915050565b61156a816114fe565b82525050565b60006020820190506115856000830184611561565b92915050565b600080604083850312156115a2576115a161123b565b5b60006115b08582860161151f565b92505060206115c1858286016113f6565b9150509250929050565b600060ff82169050919050565b6115e1816115cb565b82525050565b60006020820190506115fc60008301846115d8565b92915050565b6000602082840312156116185761161761123b565b5b60006116268482850161142c565b91505092915050565b6000602082840312156116455761164461123b565b5b6000611653848285016113f6565b91505092915050565b600080604083850312156116735761167261123b565b5b6000611681858286016113f6565b9250506020611692858286016113f6565b9150509250929050565b7f4e487b7100000000000000000000000000000000000000000000000000000000600052602260045260246000fd5b600060028204905060018216806116e357607f821691505b6020821081036116f6576116f561169c565b5b50919050565b611705816113cd565b82525050565b600060608201905061172060008301866116fc565b61172d6020830185611481565b61173a6040830184611481565b949350505050565b600060208201905061175760008301846116fc565b92915050565b7f4e487b7100000000000000000000000000000000000000000000000000000000600052601160045260246000fd5b60006117978261140b565b91506117a28361140b565b92508282019050808211156117ba576117b961175d565b5b92915050565b60006040820190506117d560008301856116fc565b6117e26020830184611561565b939250505056fea2646970667358221220e1d2b4e65130867a75bc94bcc776545ad6261f7322a2101e1632f1e9097d4d4f64736f6c634300081c0033",
  "linkReferences": {},
  "deployedLinkReferences": {}
}